:100000000C9434000C9446000C9446000C9446006A
:100010000C9446000C9446000C9446000C94460048
:100020000C9446000C9446000C9446000C94460038
:100030000C9446000C9446000C9446000C94460028
:100040000C9446000C9446000C9446000C94460018
:100050000C9446000C9446000C9446000C94460008
:100060000C9446000C94460011241FBECFEFD8E03C
:10007000DEBFCDBF21E0A0E0B1E001C01D92A23003
:10008000B207E1F70E9453000C949E000C9400000C
:10009000EAE7F0E08081816C8083ECE7F0E080812A
:1000A000806480830895429A8AB180668AB98AEF13
:1000B00087BD84B5836A84BD85B58C6085BD0F2EF0
:1000C000F8E7EF2EF12CF02D1FEFC1E0D0E017C0C4
:1000D000329915C02FEF81EE94E02150804090407E
:1000E000E1F700C000000E944800F7018081918183
:1000F00088BD1AB95D9AD0930101C0930001809127
:10010000000190910101892B19F311C0329913C09C
:10011000FFEF21EE84E0F15020408040E1F700C085
:1001200000005D981AB810920101109200018091B0
:10013000000190910101009749F7E1CFF894FFCFBA
:00000001FF
