S00F0000444132435F33622E7372656327
S11300000C9434000C9446000C9446000C94460066
S11300100C9446000C9446000C9446000C94460044
S11300200C9446000C9446000C9446000C94460034
S11300300C9446000C9446000C9459000C94460011
S11300400C9446000C9446000C9446000C94460014
S11300500C9446000C9446000C9446000C94460004
S11300600C9446000C94460011241FBECFEFD8E038
S1130070DEBFCDBF21E0A0E0B1E001C01D92A230FF
S1130080B207E1F70E9448000C9480000C94000031
S113009087B117B8429A249A2C9A17BC85B5856003
S11300A085BD84B5826084BD82E080936E007894BF
S11300B0FFCF1F920F920FB60F92112422E030E16E
S11300C03199FECFA99BFECF16BC25BB80910001C0
S11300D09091010101969093010180930001029790
S11300E014F435B9EDCF15B8809100019091010158
S11300F08D34910539F71092010110920001E2CF7D
S1070100F894FFCF9D
S9030000FC
