S00E0000444134425F322E737265638A
S11300000C9434000C943E000C943E000C943E007E
S11300100C943E000C943E000C943E000C943E0064
S11300200C943E000C943E000C943E000C943E0054
S11300300C943E000C943E000C943E000C943E0044
S11300400C943E000C943E000C943E000C943E0034
S11300500C943E000C943E000C943E000C943E0024
S11300600C943E000C943E0011241FBECFEFD8E048
S1130070DEBFCDBF0E9456000C9479000C940000A2
S1130080E0E8F0E08081826A8083E1E8F0E080814A
S11300908B6180830895EAE7F0E08081836C80833C
S11300A0ECE7F0E080818064808308950F2EF6E809
S11300B0CF2ED12CF02D0F2EF7E8EF2EF3E1FF2EEB
S11300C0F02D08E710E0C8E8D0E00E9440000E944C
S11300D04B00F601F182E082219AF801808191813E
S11300E0998388838FE39CE90197F1F700C00000AE
S10900F0ECCFF894FFCFF1
S9030000FC
