:100000000C9434000C9446000C9446000C9446006A
:100010000C9446000C9446000C9446000C94460048
:100020000C9446000C9446000C9446000C94460038
:100030000C9446000C9446000C9446000C94460028
:100040000C9458000C9446000C9446000C94460006
:100050000C9446000C9446000C9446000C94460008
:100060000C9446000C94460011241FBECFEFD8E03C
:10007000DEBFCDBF21E0A0E0B1E001C01D92A23003
:10008000B207E1F70E9448000C947F000C94000036
:1000900087B117B8429A249A2C9AEEE6F0E0808154
:1000A0008160808316BC789485B5856085BDFFCF5F
:1000B0001F920F920FB60F92112421E030E1319977
:1000C000FECFA89BFECF16BC25BB8091000190916E
:1000D000010101969093010180930001029714F4AD
:1000E00035B9EDCF15B880910001909101018D34A3
:1000F000910539F71092010110920001E2CFF894B6
:02010000FFCF2F
:00000001FF
