:100000000C9434000C943E000C943E000C943E0082
:100010000C943E000C943E000C943E000C943E0068
:100020000C943E000C943E000C943E000C943E0058
:100030000C943E000C943E000C943E000C943E0048
:100040000C943E000C943E000C943E000C943E0038
:100050000C943E000C943E000C943E000C943E0028
:100060000C943E000C943E0011241FBECFEFD8E04C
:10007000DEBFCDBF0E9440000C945B000C940000DA
:10008000249A14BC16BC85B5846085BD80E090E0E0
:1000900021E030E1A89BFECF16BC25BB019687343A
:1000A000910514F015B801C035B9813B910591F760
:0A00B00080E090E0EFCFF894FFCF5E
:00000001FF
