:100000000C9434000C9446000C9446000C9446006A
:100010000C9446000C9446000C9446000C94460048
:100020000C9446000C9446000C9446000C94460038
:100030000C9446000C9446000C9446000C94460028
:100040000C9448000C9446000C9446000C94460016
:100050000C9446000C9446000C9446000C94460008
:100060000C9446000C94460011241FBECFEFD8E03C
:10007000DEBFCDBF21E0A0E0B1E001C01D92A23003
:10008000B207E1F70E9476000C94B3020C940000D2
:100090001F920F920FB60F9211248F939F93A899DE
:1000A000FECF16BC81E085BB8091000190910101DB
:1000B000019690930101809300019F918F910F9081
:1000C0000FBE0F901F90189588E08093C10086E0C6
:1000D0008093C20087E68093C4000895E0ECF0E0CE
:1000E000908195FFFDCF8093C60008950E94640023
:1000F00085E480937C0085E880937A00EEE6F0E06A
:1001000080818160808316BC789485B5856085BDCB
:10011000CAE7D0E00F2EF8E7AF2EB12CF02D09E79B
:1001200010E00F2EF4E6CF2ED12CF02D0F2EFAE09A
:10013000EF2EF12CF02D888180648883888184FFE4
:10014000FDCF8881806188838091000190910101B9
:10015000CD9789F7F5016081F801808170E0782BF7
:10016000072E000C880B990B0E94920120E030E0D2
:1001700040E85AE30E941E0220E030E44CE955E4D6
:100180000E941E0220E030E040E251E40E94E800BC
:100190000E945A01CB01B6010E948B024C0180E300
:1001A000860F0E946E00C401B7010E948B02982E38
:1001B00080E3860F0E946E0080E3890D0E946E002E
:1001C0008DE00E946E001092010110920001B3CFE9
:1001D0000E94FC000C94E4010E94DD0158F00E9492
:1001E000D60140F029F45F3F29F00C94CD01511164
:1001F0000C9418020C94D3010E94F50168F3992322
:10020000B1F3552391F3951B550BBB27AA27621712
:100210007307840738F09F5F5F4F220F331F441F1F
:10022000AA1FA9F335D00E2E3AF0E0E832D0915053
:100230005040E695001CCAF72BD0FE2F29D0660F40
:10024000771F881FBB1F261737074807AB07B0E883
:1002500009F0BB0B802DBF01FF2793585F4F3AF089
:100260009E3F510578F00C94CD010C9418025F3F2D
:10027000E4F3983ED4F3869577956795B795F7950F
:100280009F5FC9F7880F911D9695879597F90895F7
:10029000E1E0660F771F881FBB1F62177307840793
:1002A000BA0720F0621B730B840BBA0BEE1F88F7A2
:1002B000E09508950E9461016894B1110C941802B0
:1002C00008950E94FD0188F09F5798F0B92F992753
:1002D000B751B0F0E1F0660F771F881F991F1AF031
:1002E000BA95C9F714C0B13091F00E941702B1E07D
:1002F00008950C941702672F782F8827B85F39F07C
:10030000B93FCCF3869577956795B395D9F73EF4C9
:1003100090958095709561957F4F8F4F9F4F089571
:10032000E89409C097FB3EF490958095709561958F
:100330007F4F8F4F9F4F9923A9F0F92F96E9BB2745
:100340009395F695879577956795B795F111F8CFC1
:10035000FAF4BB0F11F460FF1BC06F5F7F4F8F4F2C
:100360009F4F16C0882311F096E911C0772321F022
:100370009EE8872F762F05C0662371F096E8862FBA
:1003800070E060E02AF09A95660F771F881FDAF711
:10039000880F9695879597F9089597F99F6780E854
:1003A00070E060E008959FEF80EC089500240A94C7
:1003B0001616170618060906089500240A94121640
:1003C0001306140605060895092E0394000C11F473
:1003D000882352F0BB0F40F4BF2B11F460FF04C020
:1003E0006F5F7F4F8F4F9F4F089557FD9058440F79
:1003F000551F59F05F3F71F04795880F97FB991F84
:1004000061F09F3F79F08795089512161306140640
:10041000551FF2CF4695F1DF08C0161617061806CD
:10042000991FF1CF86957105610508940895E894A8
:10043000BB2766277727CB0197F908950E943102E1
:100440000C94E4010E94D60138F00E94DD0120F0F6
:10045000952311F00C94CD010C94D30111240C942C
:1004600018020E94F50170F3959FC1F3950F50E0BB
:10047000551F629FF001729FBB27F00DB11D639F56
:10048000AA27F00DB11DAA1F649F6627B00DA11DFC
:10049000661F829F2227B00DA11D621F739FB00DA2
:1004A000A11D621F839FA00D611D221F749F332712
:1004B000A00D611D231F849F600D211D822F762FAB
:1004C0006A2F11249F5750409AF0F1F088234AF088
:1004D000EE0FFF1FBB1F661F771F881F91505040F4
:1004E000A9F79E3F510580F00C94CD010C941802A1
:1004F0005F3FE4F3983ED4F3869577956795B7957B
:10050000F795E7959F5FC1F7FE2B880F911D969594
:10051000879597F9089597FB072E16F4009407D056
:1005200077FD09D00E949F0207FC05D03EF490950C
:1005300081959F4F0895709561957F4F0895AA1BEF
:10054000BB1B51E107C0AA1FBB1FA617B70710F0BE
:10055000A61BB70B881F991F5A95A9F780959095F0
:0A056000BC01CD010895F894FFCF0F
:00000001FF
