:100000000C9434000C9446000C9446000C9446006A
:100010000C9446000C9446000C9446000C94460048
:100020000C9446000C9446000C9446000C94460038
:100030000C9446000C9446000C9446000C94460028
:100040000C9446000C9446000C9446000C94460018
:100050000C9446000C9446000C9446000C94460008
:100060000C9446000C94460011241FBECFEFD8E03C
:10007000DEBFCDBF21E0A0E0B1E001C01D92A23003
:10008000B207E1F70E9448000C9474000C94000041
:1000900087B117B8429A249A2C9A14BC16BC85B51D
:1000A000856085BD21E030E13199FECFA89BFECF70
:1000B00016BC25BB8091000190910101019690939F
:1000C000010180930001029714F435B9EDCF15B802
:1000D00080910001909101018C34910539F71092C3
:0C00E000010110920001E2CFF894FFCF64
:00000001FF
