S00F0000444132435F32612E7372656329
S11300000C9434000C9446000C9446000C94460066
S11300100C9446000C9446000C9446000C94460044
S11300200C9446000C9446000C9446000C94460034
S11300300C9446000C9446000C9446000C94460024
S11300400C9454000C9446000C9446000C94460006
S11300500C9446000C9446000C9446000C94460004
S11300600C9446000C94460011241FBECFEFD8E038
S1130070DEBFCDBF21E0A0E0B1E001C01D92A230FF
S1130080B207E1F70E9448000C9482000C9400002F
S1130090249AEEE6F0E080818160808316BC789437
S11300A085B5846085BDFFCF1F920F920FB60F9266
S11300B011248F939F93A899FECF16BC81E085BB32
S11300C08091000190910101019690930101809328
S11300D000018734910514F015B802C080E185B998
S11300E08091000190910101823B910521F41092CD
S11300F00101109200019F918F910F900FBE0F90FC
S10B01001F901895F894FFCF3D
S9030000FC
