:100000000C9434000C9451000C9451000C94510049
:100010000C9451000C9451000C9451000C9451001C
:100020000C9451000C9451000C9451000C9451000C
:100030000C9451000C9451000C9451000C945100FC
:100040000C948B000C9451000C9451000C945100B2
:100050000C9451000C9451000C9451000C945100DC
:100060000C9451000C94510011241FBECFEFD8E026
:10007000DEBFCDBF11E0A0E0B1E0ECEFF9E002C0DF
:1000800005900D92A633B107D9F721E0A6E3B1E0C0
:1000900001C01D92AC35B207E1F70E9474000C94C8
:1000A000FC040C9400009093C5008093C40088E089
:1000B0008093C10086E08093C2000895CF93DF93C0
:1000C000FC012081222369F0DC011196E0ECF0E0D4
:1000D000C6ECD0E0908195FFFDCF28832D912111B2
:1000E000F9CFDF91CF9108951092590110925801E4
:1000F000EEE6F0E0808181608083789414BC85B561
:10010000856085BD87E690E00E94530084E191E020
:100110000E945E00FFCF1F920F920FB60F92112424
:100120002F933F934F935F936F937F938F939F93FF
:10013000AF93BF93CF93DF93EF93FF9321E00CC076
:10014000A89B0AC025BB8091580190915901019646
:1001500090935901809358018091580190915901D1
:10016000CD9774F38091580190915901CD970CF47B
:1001700057C086E091E00E945E0084E091E00E941A
:100180005E000E946F0180935A0190935B0142E5EB
:1001900058E963EA73E44093540150935501609326
:1001A0005601709357019F938F938CE291E09F9338
:1001B0008F931F928EE18F93C6E3D1E0DF93CF93AD
:1001C0000E947F01CE010E945E0084E091E00E94C7
:1001D0005E00809157018F93809156018F9380919B
:1001E00055018F93809154018F9382E391E09F9307
:1001F0008F93DF93CF930E94AF01CE010E945E00E8
:1002000084E091E00E945E00109259011092580122
:100210008DB79EB740960FB6F8949EBF0FBE8DBFA8
:10022000FF91EF91DF91CF91BF91AF919F918F910E
:100230007F916F915F914F913F912F910F900FBEE2
:100240000F901F9018958F929F92AF92BF92CF926E
:10025000DF92EF92FF92CF93DF93EC016881798177
:100260008A819B81611571058105910521F464E204
:1002700079ED8BE597E02DE133EF41E050E00E940E
:10028000620449015A019B01AC01A7EAB1E40E9452
:1002900081046B017C01ACEEB4EFA50194010E94D6
:1002A0008F04DC01CB018C0D9D1DAE1DBF1DB7FF62
:1002B00003C00197A109B04888839983AA83BB83AF
:1002C0009F77DF91CF91FF90EF90DF90CF90BF901D
:1002D000AF909F908F9008950E942301089580E031
:1002E00091E00E9423010895A0E0B0E08093000116
:1002F00090930101A0930201B09303010895AEE031
:10030000B0E0E5E8F1E00C94A2040D891E898F8924
:10031000988D26E02C831A83098397FF02C080E022
:1003200090E801979E838D83AE01455E5F4F698D96
:100330007A8DCE0101960E94D1014D815E8157FDDB
:100340000AC02F813885421753070CF49A01F8012F
:10035000E20FF31F10822E96E4E00C94BE04AEE090
:10036000B0E0E5EBF1E00C94A2040D891E8986E073
:100370008C831A8309838FEF9FE79E838D83AE0161
:10038000475E5F4F6F89788DCE0101960E94D10143
:10039000EF81F885E00FF11F10822E96E4E00C94B7
:1003A000BE04ABE0B0E0E7EDF1E00C9494046C0126
:1003B0007B018A01FC0117821682838181FFCCC1F7
:1003C000CE0101963C01F6019381F70193FD8591E1
:1003D00093FF81917F01882309F4BAC1853239F4F2
:1003E00093FD859193FF81917F01853229F4B601B8
:1003F00090E00E94C803E7CF912C212C312CFFE123
:10040000F315D8F08B3279F038F4803279F08332FA
:10041000A1F4232D20611DC08D3261F0803369F479
:10042000232D216016C0832D8260382EE32DE460D9
:100430003E2E2AC0F32DF8601DC037FC2DC020EDE4
:10044000280F2A3040F08E32B9F436FC81C1232DBA
:100450002064322E19C036FE06C08AE0989E200D18
:100460001124922E11C0EAE02E9E200D1124222E7E
:10047000F32DF0623F2E08C08C3621F4832D806866
:10048000382E02C0883641F4F70193FD859193FF21
:1004900081917F018111B3CF982F9F7D9554933027
:1004A00028F40C5F1F4F9FE399830DC0833631F012
:1004B000833771F0833509F059C021C0F80180817C
:1004C00089830E5F1F4F88248394912C530113C09E
:1004D0002801F2E04F0E511CF801A080B18036FED9
:1004E00003C0692D70E002C06FEF7FEFC5010E946D
:1004F000BD034C018201F32DFF773F2E16C028016A
:1005000022E0420E511CF801A080B18036FE03C0EB
:10051000692D70E002C06FEF7FEFC5010E94B2034A
:100520004C01F32DF0683F2E820133FC1BC0822D5D
:1005300090E088169906B0F4B60180E290E00E943F
:10054000C8032A94F4CFF50137FC859137FE8191D9
:100550005F01B60190E00E94C80321102A9421E0B7
:10056000821A91088114910471F7E8C0843611F061
:10057000893641F5F80137FE07C0608171818281BB
:1005800093810C5F1F4F08C060817181072E000CA2
:10059000880B990B0E5F1F4FF32DFF763F2E97FFB1
:1005A00009C090958095709561957F4F8F4F9F4FB3
:1005B000F0683F2E2AE030E0A3010E940404882E58
:1005C000861845C0853731F4232D2F7EB22E2AE0C0
:1005D00030E025C0932D997FB92E8F36C1F018F4E5
:1005E000883579F0B5C0803719F0883721F0B0C070
:1005F000E92FE061BE2EB4FE0DC0FB2DF460BF2ECE
:1006000009C034FE0AC0292F2660B22E06C028E099
:1006100030E005C020E130E002C020E132E0F80126
:10062000B7FE07C060817181828193810C5F1F4F8B
:1006300006C06081718180E090E00E5F1F4FA301D2
:100640000E940404882E8618FB2DFF773F2E36FE6D
:100650000DC0232D2E7FA22E891458F434FE0BC01A
:1006600032FC09C0832D8E7EA82E05C0B82CA32C89
:1006700003C0B82C01C0B92CA4FE0FC0FE01E80DC8
:10068000F11D8081803321F49A2D997EA92E09C015
:10069000A2FE06C0B394B39404C08A2D867809F0F4
:1006A000B394A3FC11C0A0FE06C0B21488F4280CB9
:1006B000922C9B180EC0B21460F4B60180E290E058
:1006C0000E94C803B394F7CFB21418F42B1802C0D9
:1006D000982C212CA4FE10C0B60180E390E00E946B
:1006E000C803A2FE17C0A1FC03C088E790E002C0C7
:1006F00088E590E0B6010CC08A2D867859F0A1FEFD
:1007000002C08BE201C080E2A7FC8DE2B60190E05E
:100710000E94C803891438F4B60180E390E00E9477
:10072000C8039A94F7CF8A94F301E80DF11D8081F4
:10073000B60190E00E94C8038110F5CF222009F491
:1007400042CEB60180E290E00E94C8032A94F6CF20
:10075000F6018681978102C08FEF9FEF2B96E2E131
:100760000C94B004FC010590615070400110D8F762
:10077000809590958E0F9F1F0895FC0161507040E9
:1007800001900110D8F7809590958E0F9F1F0895C6
:100790000F931F93CF93DF93FB01238121FD03C0B0
:1007A0008FEF9FEF2CC022FF16C046815781248116
:1007B00035814217530744F4A081B1819D012F5F19
:1007C0003F4F318320838C93268137812F5F3F4FAA
:1007D0003783268314C08B01EC01FB010084F18573
:1007E000E02D0995892BE1F6D80116968D919C9103
:1007F0001797019617969C938E931697CE01DF91CB
:10080000CF911F910F910895FA01AA27283051F135
:10081000203181F1E8946F936E7F6E5F7F4F8F4F31
:100820009F4FAF4FB1E03ED0B4E03CD0670F781F90
:10083000891F9A1FA11D680F791F8A1F911DA11D75
:100840006A0F711D811D911DA11D20D009F46894AE
:100850003F912AE0269F11243019305D3193DEF656
:10086000CF010895462F4770405D4193B3E00FD00C
:10087000C9F7F6CF462F4F70405D4A3318F0495DF7
:1008800031FD4052419302D0A9F7EACFB4E0A695DA
:100890009795879577956795BA95C9F700976105FC
:1008A000710508959B01AC010A2E06945795479552
:1008B00037952795BA95C9F7620F731F841F951F47
:1008C000A01D0895052E97FB1EF400940E94790444
:1008D00057FD07D00E94CB0407FC03D04EF40C94C4
:1008E000790450954095309521953F4F4F4F5F4F7C
:1008F000089590958095709561957F4F8F4F9F4F8C
:1009000008950E94ED04A59F900DB49F900DA49FA3
:10091000800D911D11240895B7FF0C9481040E944D
:100920008104821B930B08952F923F924F925F9206
:100930006F927F928F929F92AF92BF92CF92DF92EF
:10094000EF92FF920F931F93CF93DF93CDB7DEB754
:10095000CA1BDB0B0FB6F894DEBF0FBECDBF0994E8
:100960002A88398848885F846E847D848C849B843F
:10097000AA84B984C884DF80EE80FD800C811B814D
:10098000AA81B981CE0FD11D0FB6F894DEBF0FBE7C
:10099000CDBFED010895A1E21A2EAA1BBB1BFD01DC
:1009A0000DC0AA1FBB1FEE1FFF1FA217B307E4074E
:1009B000F50720F0A21BB30BE40BF50B661F771FA6
:1009C000881F991F1A9469F7609570958095909586
:1009D0009B01AC01BD01CF010895A29FB001B39F5F
:1009E000C001A39F700D811D1124911DB29F700D38
:0C09F000811D1124911D0895F894FFCF83
:1009FC000100000020004A756C795F3474685F3127
:100A0C0037373600636F6E6E656374696F6E5F7334
:100A1C0075636365737366756C0D0A002533640D1D
:060A2C000A00256600002F
:00000001FF
